{
  "contractName": "Funds",
  "abi": [
    {
      "inputs": [],
      "name": "owner",
      "outputs": [
        {
          "internalType": "address",
          "name": "",
          "type": "address"
        }
      ],
      "stateMutability": "view",
      "type": "function",
      "constant": true
    },
    {
      "inputs": [],
      "name": "test",
      "outputs": [
        {
          "internalType": "uint256",
          "name": "",
          "type": "uint256"
        }
      ],
      "stateMutability": "pure",
      "type": "function",
      "constant": true
    },
    {
      "inputs": [],
      "name": "testNum",
      "outputs": [
        {
          "internalType": "uint256",
          "name": "",
          "type": "uint256"
        }
      ],
      "stateMutability": "view",
      "type": "function",
      "constant": true
    },
    {
      "stateMutability": "payable",
      "type": "receive",
      "payable": true
    },
    {
      "inputs": [],
      "name": "emitLog",
      "outputs": [
        {
          "internalType": "address",
          "name": "",
          "type": "address"
        }
      ],
      "stateMutability": "view",
      "type": "function",
      "constant": true
    },
    {
      "inputs": [],
      "name": "addFunds",
      "outputs": [],
      "stateMutability": "payable",
      "type": "function",
      "payable": true
    },
    {
      "inputs": [
        {
          "internalType": "address",
          "name": "newOwner",
          "type": "address"
        }
      ],
      "name": "transferOwnership",
      "outputs": [],
      "stateMutability": "nonpayable",
      "type": "function"
    },
    {
      "inputs": [
        {
          "internalType": "uint256",
          "name": "amount",
          "type": "uint256"
        }
      ],
      "name": "withdraw",
      "outputs": [],
      "stateMutability": "nonpayable",
      "type": "function"
    },
    {
      "inputs": [],
      "name": "getDonators",
      "outputs": [
        {
          "internalType": "address[]",
          "name": "",
          "type": "address[]"
        }
      ],
      "stateMutability": "view",
      "type": "function",
      "constant": true
    }
  ],
  "bytecode": "0x608060405234801561001057600080fd5b50336000806101000a81548173ffffffffffffffffffffffffffffffffffffffff021916908373ffffffffffffffffffffffffffffffffffffffff1602179055506103e8600181905550610a21806100696000396000f3fe60806040526004361061007f5760003560e01c8063bf1482fa1161004e578063bf1482fa14610114578063f2fde38b1461013f578063f42c13bf14610168578063f8a8fd6d1461019357610086565b80632e1a7d4d1461008b5780638da5cb5b146100b4578063a26759cb146100df578063ae28f1ed146100e957610086565b3661008657005b600080fd5b34801561009757600080fd5b506100b260048036038101906100ad9190610666565b6101be565b005b3480156100c057600080fd5b506100c9610255565b6040516100d69190610778565b60405180910390f35b6100e7610279565b005b3480156100f557600080fd5b506100fe6103c9565b60405161010b91906107f5565b60405180910390f35b34801561012057600080fd5b506101296103cf565b6040516101369190610793565b60405180910390f35b34801561014b57600080fd5b506101666004803603810190610161919061063d565b610535565b005b34801561017457600080fd5b5061017d610606565b60405161018a9190610778565b60405180910390f35b34801561019f57600080fd5b506101a861060e565b6040516101b591906107f5565b60405180910390f35b80670de0b6b3a764000081111561020a576040517f08c379a0000000000000000000000000000000000000000000000000000000008152600401610201906107b5565b60405180910390fd5b3373ffffffffffffffffffffffffffffffffffffffff166108fc839081150290604051600060405180830381858888f19350505050158015610250573d6000803e3d6000fd5b505050565b60008054906101000a900473ffffffffffffffffffffffffffffffffffffffff1681565b60001515600260003373ffffffffffffffffffffffffffffffffffffffff1673ffffffffffffffffffffffffffffffffffffffff16815260200190815260200160002060009054906101000a900460ff16151514156103c7576001600260003373ffffffffffffffffffffffffffffffffffffffff1673ffffffffffffffffffffffffffffffffffffffff16815260200190815260200160002060006101000a81548160ff0219169083151502179055503360036000600460009054906101000a900460ff1660ff16815260200190815260200160002060006101000a81548173ffffffffffffffffffffffffffffffffffffffff021916908373ffffffffffffffffffffffffffffffffffffffff1602179055506004600081819054906101000a900460ff16809291906103ad906108ec565b91906101000a81548160ff021916908360ff160217905550505b565b60015481565b60606000600460009054906101000a900460ff1660ff1667ffffffffffffffff811115610425577f4e487b7100000000000000000000000000000000000000000000000000000000600052604160045260246000fd5b6040519080825280602002602001820160405280156104535781602001602082028036833780820191505090505b50905060005b600460009054906101000a900460ff1660ff1681101561052d576003600082815260200190815260200160002060009054906101000a900473ffffffffffffffffffffffffffffffffffffffff168282815181106104e0577f4e487b7100000000000000000000000000000000000000000000000000000000600052603260045260246000fd5b602002602001019073ffffffffffffffffffffffffffffffffffffffff16908173ffffffffffffffffffffffffffffffffffffffff16815250508080610525906108a3565b915050610459565b508091505090565b3373ffffffffffffffffffffffffffffffffffffffff1660008054906101000a900473ffffffffffffffffffffffffffffffffffffffff1673ffffffffffffffffffffffffffffffffffffffff16146105c3576040517f08c379a00000000000000000000000000000000000000000000000000000000081526004016105ba906107d5565b60405180910390fd5b806000806101000a81548173ffffffffffffffffffffffffffffffffffffffff021916908373ffffffffffffffffffffffffffffffffffffffff16021790555050565b600033905090565b600090565b600081359050610622816109bd565b92915050565b600081359050610637816109d4565b92915050565b60006020828403121561064f57600080fd5b600061065d84828501610613565b91505092915050565b60006020828403121561067857600080fd5b600061068684828501610628565b91505092915050565b600061069b83836106a7565b60208301905092915050565b6106b08161085a565b82525050565b6106bf8161085a565b82525050565b60006106d082610820565b6106da8185610838565b93506106e583610810565b8060005b838110156107165781516106fd888261068f565b97506107088361082b565b9250506001810190506106e9565b5085935050505092915050565b6000610730602183610849565b915061073b82610945565b604082019050919050565b6000610753601883610849565b915061075e82610994565b602082019050919050565b6107728161088c565b82525050565b600060208201905061078d60008301846106b6565b92915050565b600060208201905081810360008301526107ad81846106c5565b905092915050565b600060208201905081810360008301526107ce81610723565b9050919050565b600060208201905081810360008301526107ee81610746565b9050919050565b600060208201905061080a6000830184610769565b92915050565b6000819050602082019050919050565b600081519050919050565b6000602082019050919050565b600082825260208201905092915050565b600082825260208201905092915050565b60006108658261086c565b9050919050565b600073ffffffffffffffffffffffffffffffffffffffff82169050919050565b6000819050919050565b600060ff82169050919050565b60006108ae8261088c565b91507fffffffffffffffffffffffffffffffffffffffffffffffffffffffffffffffff8214156108e1576108e0610916565b5b600182019050919050565b60006108f782610896565b915060ff82141561090b5761090a610916565b5b600182019050919050565b7f4e487b7100000000000000000000000000000000000000000000000000000000600052601160045260246000fd5b7f43616e6e6f74207769746864726177206d6f7265207468616e2031204574686560008201527f7200000000000000000000000000000000000000000000000000000000000000602082015250565b7f4f6e6c79204f776e657220686176652061636365737320210000000000000000600082015250565b6109c68161085a565b81146109d157600080fd5b50565b6109dd8161088c565b81146109e857600080fd5b5056fea26469706673582212203b829c1b46cf362596c75b24c72a77b24ed85b92e1cab7a83029181d6159a47d64736f6c63430008040033",
  "immutableReferences": {},
  "source": "// SPDX-License-Identifier: MIT\r\npragma solidity >=0.4.22 <0.9.0;\r\n\r\nimport \"./OwnerContract.sol\";\r\nimport \"./LogContract.sol\"; \r\nimport \"./IFunds.sol\";\r\n\r\ncontract Funds is Owner,Log,IFunds{\r\n    mapping(address => bool) addedDonors;\r\n    mapping(uint => address) index_to_donor;\r\n\r\n    uint8 numberOfDonors;\r\n \r\n    modifier limitAmount(uint amount){\r\n        require(amount <= 1000000000000000000 , \"Cannot withdraw more than 1 Ether\");\r\n        _;\r\n    }\r\n    function emitLog() override public view returns(address){\r\n        return msg.sender;\r\n    }\r\n    receive() external payable{}\r\n    function addFunds() override external payable{\r\n        if(addedDonors[msg.sender] == false){\r\n            addedDonors[msg.sender] = true;\r\n            index_to_donor[numberOfDonors] = msg.sender;\r\n            numberOfDonors++;\r\n        }\r\n    }\r\n    function transferOwnership(address newOwner) external onlyOwner(){\r\n        owner = newOwner;\r\n    }\r\n    function withdraw(uint amount)external override limitAmount(amount){\r\n        payable(msg.sender).transfer(amount);\r\n    }\r\n    function getDonators() external view returns (address[] memory){\r\n        address [] memory donators = new address [](numberOfDonors);\r\n        for(uint i = 0; i<numberOfDonors; i++){\r\n            donators[i] = index_to_donor[i];\r\n        }\r\n        return donators;\r\n    }\r\n}\r\n\r\n//const instance = await Funds.deployed()\r\n// instance.addFunds({value:\"10000000000000000\",from:accounts[1]})\r\n//instance.withdraw(\"10000000000000000\",{from:accounts[1]})",
  "sourcePath": "D:\\Development\\blockchain\\faucet\\contracts\\FundsContract.sol",
  "compiler": {
    "name": "solc",
    "version": "0.8.4+commit.c7e474f2.Emscripten.clang"
  },
  "schemaVersion": "3.4.5",
  "updatedAt": "2022-03-04T15:47:36.639Z",
  "networkType": "ethereum",
  "devdoc": {
    "kind": "dev",
    "methods": {},
    "version": 1
  },
  "userdoc": {
    "kind": "user",
    "methods": {},
    "version": 1
  }
}