{
  "contractName": "Funds",
  "abi": [
    {
      "inputs": [],
      "name": "admin",
      "outputs": [
        {
          "internalType": "address",
          "name": "",
          "type": "address"
        }
      ],
      "stateMutability": "view",
      "type": "function",
      "constant": true
    },
    {
      "inputs": [],
      "name": "test",
      "outputs": [
        {
          "internalType": "uint256",
          "name": "",
          "type": "uint256"
        }
      ],
      "stateMutability": "pure",
      "type": "function",
      "constant": true
    },
    {
      "inputs": [],
      "name": "testNum",
      "outputs": [
        {
          "internalType": "uint256",
          "name": "",
          "type": "uint256"
        }
      ],
      "stateMutability": "view",
      "type": "function",
      "constant": true
    },
    {
      "inputs": [],
      "name": "emitLog",
      "outputs": [
        {
          "internalType": "address",
          "name": "",
          "type": "address"
        }
      ],
      "stateMutability": "view",
      "type": "function",
      "constant": true
    },
    {
      "inputs": [
        {
          "internalType": "string",
          "name": "name",
          "type": "string"
        },
        {
          "internalType": "string",
          "name": "description",
          "type": "string"
        },
        {
          "internalType": "uint256",
          "name": "targetAmount",
          "type": "uint256"
        }
      ],
      "name": "createFundraiser",
      "outputs": [],
      "stateMutability": "nonpayable",
      "type": "function"
    },
    {
      "inputs": [],
      "name": "getFundraisers",
      "outputs": [
        {
          "components": [
            {
              "internalType": "string",
              "name": "name",
              "type": "string"
            },
            {
              "internalType": "string",
              "name": "description",
              "type": "string"
            },
            {
              "internalType": "uint256",
              "name": "amount",
              "type": "uint256"
            },
            {
              "internalType": "address",
              "name": "creator",
              "type": "address"
            },
            {
              "internalType": "bool",
              "name": "stopped",
              "type": "bool"
            }
          ],
          "internalType": "struct Funds.Fundraiser[]",
          "name": "",
          "type": "tuple[]"
        }
      ],
      "stateMutability": "view",
      "type": "function",
      "constant": true
    },
    {
      "inputs": [
        {
          "internalType": "uint256",
          "name": "amount",
          "type": "uint256"
        },
        {
          "internalType": "uint256",
          "name": "fundraiser",
          "type": "uint256"
        }
      ],
      "name": "withdraw",
      "outputs": [],
      "stateMutability": "nonpayable",
      "type": "function"
    },
    {
      "inputs": [
        {
          "internalType": "uint256",
          "name": "fundraiser",
          "type": "uint256"
        }
      ],
      "name": "addFunds",
      "outputs": [],
      "stateMutability": "payable",
      "type": "function",
      "payable": true
    },
    {
      "inputs": [
        {
          "internalType": "uint256",
          "name": "fundraiser",
          "type": "uint256"
        }
      ],
      "name": "getDonatorsOfFundraiser",
      "outputs": [
        {
          "internalType": "address[]",
          "name": "",
          "type": "address[]"
        }
      ],
      "stateMutability": "view",
      "type": "function",
      "constant": true
    },
    {
      "inputs": [
        {
          "internalType": "uint256",
          "name": "fundraiser",
          "type": "uint256"
        }
      ],
      "name": "stopFunding",
      "outputs": [],
      "stateMutability": "nonpayable",
      "type": "function"
    },
    {
      "inputs": [
        {
          "internalType": "uint256",
          "name": "fundraiser",
          "type": "uint256"
        }
      ],
      "name": "startFunding",
      "outputs": [],
      "stateMutability": "nonpayable",
      "type": "function"
    }
  ],
  "bytecode": "0x608060405234801561001057600080fd5b50336000806101000a81548173ffffffffffffffffffffffffffffffffffffffff021916908373ffffffffffffffffffffffffffffffffffffffff1602179055506103e8600181905550611789806100696000396000f3fe60806040526004361061009c5760003560e01c8063be99970511610064578063be99970514610186578063bee2ecc0146101a2578063c50870b1146101cb578063f42c13bf146101f4578063f851a4401461021f578063f8a8fd6d1461024a5761009c565b806340541bad146100a1578063441a3e70146100de5780636b86c948146101075780638e028d4014610130578063ae28f1ed1461015b575b600080fd5b3480156100ad57600080fd5b506100c860048036038101906100c39190610fa0565b610275565b6040516100d59190611289565b60405180910390f35b3480156100ea57600080fd5b5061010560048036038101906101009190610fc9565b610452565b005b34801561011357600080fd5b5061012e60048036038101906101299190610fa0565b6105c7565b005b34801561013c57600080fd5b50610145610687565b60405161015291906112ab565b60405180910390f35b34801561016757600080fd5b50610170610932565b60405161017d919061132d565b60405180910390f35b6101a0600480360381019061019b9190610fa0565b610938565b005b3480156101ae57600080fd5b506101c960048036038101906101c49190610fa0565b610b46565b005b3480156101d757600080fd5b506101f260048036038101906101ed9190610f21565b610c74565b005b34801561020057600080fd5b50610209610d89565b604051610216919061126e565b60405180910390f35b34801561022b57600080fd5b50610234610d91565b604051610241919061126e565b60405180910390f35b34801561025657600080fd5b5061025f610db5565b60405161026c919061132d565b60405180910390f35b60606000600683815481106102b3577f4e487b7100000000000000000000000000000000000000000000000000000000600052603260045260246000fd5b906000526020600020015467ffffffffffffffff8111156102fd577f4e487b7100000000000000000000000000000000000000000000000000000000600052604160045260246000fd5b60405190808252806020026020018201604052801561032b5781602001602082028036833780820191505090505b50905060005b6006848154811061036b577f4e487b7100000000000000000000000000000000000000000000000000000000600052603260045260246000fd5b90600052602060002001548110156104485760046000858152602001908152602001600020600082815260200190815260200160002060009054906101000a900473ffffffffffffffffffffffffffffffffffffffff168282815181106103fb577f4e487b7100000000000000000000000000000000000000000000000000000000600052603260045260246000fd5b602002602001019073ffffffffffffffffffffffffffffffffffffffff16908173ffffffffffffffffffffffffffffffffffffffff16815250508080610440906115b4565b915050610331565b5080915050919050565b803373ffffffffffffffffffffffffffffffffffffffff166002600083815260200190815260200160002060030160009054906101000a900473ffffffffffffffffffffffffffffffffffffffff1673ffffffffffffffffffffffffffffffffffffffff16146104f7576040517f08c379a00000000000000000000000000000000000000000000000000000000081526004016104ee9061130d565b60405180910390fd5b6005600083815260200190815260200160002054838181111561054f576040517f08c379a0000000000000000000000000000000000000000000000000000000008152600401610546906112ed565b60405180910390fd5b3373ffffffffffffffffffffffffffffffffffffffff166108fc869081150290604051600060405180830381858888f19350505050158015610595573d6000803e3d6000fd5b50846005600086815260200190815260200160002060008282546105b99190611493565b925050819055505050505050565b3373ffffffffffffffffffffffffffffffffffffffff1660008054906101000a900473ffffffffffffffffffffffffffffffffffffffff1673ffffffffffffffffffffffffffffffffffffffff1614610655576040517f08c379a000000000000000000000000000000000000000000000000000000000815260040161064c906112cd565b60405180910390fd5b60006002600083815260200190815260200160002060030160146101000a81548160ff02191690831515021790555050565b6060600060075467ffffffffffffffff8111156106cd577f4e487b7100000000000000000000000000000000000000000000000000000000600052604160045260246000fd5b60405190808252806020026020018201604052801561070657816020015b6106f3610dba565b8152602001906001900390816106eb5790505b50905060005b60075481101561092a57600260008281526020019081526020016000206040518060a001604052908160008201805461074490611551565b80601f016020809104026020016040519081016040528092919081815260200182805461077090611551565b80156107bd5780601f10610792576101008083540402835291602001916107bd565b820191906000526020600020905b8154815290600101906020018083116107a057829003601f168201915b505050505081526020016001820180546107d690611551565b80601f016020809104026020016040519081016040528092919081815260200182805461080290611551565b801561084f5780601f106108245761010080835404028352916020019161084f565b820191906000526020600020905b81548152906001019060200180831161083257829003601f168201915b50505050508152602001600282015481526020016003820160009054906101000a900473ffffffffffffffffffffffffffffffffffffffff1673ffffffffffffffffffffffffffffffffffffffff1673ffffffffffffffffffffffffffffffffffffffff1681526020016003820160149054906101000a900460ff16151515158152505082828151811061090c577f4e487b7100000000000000000000000000000000000000000000000000000000600052603260045260246000fd5b60200260200101819052508080610922906115b4565b91505061070c565b508091505090565b60015481565b600015156003600083815260200190815260200160002060003373ffffffffffffffffffffffffffffffffffffffff1673ffffffffffffffffffffffffffffffffffffffff16815260200190815260200160002060009054906101000a900460ff1615151415610b435760016003600083815260200190815260200160002060003373ffffffffffffffffffffffffffffffffffffffff1673ffffffffffffffffffffffffffffffffffffffff16815260200190815260200160002060006101000a81548160ff021916908315150217905550346005600083815260200190815260200160002054610a2a919061143d565b60056000838152602001908152602001600020819055503360046000838152602001908152602001600020600060068481548110610a91577f4e487b7100000000000000000000000000000000000000000000000000000000600052603260045260246000fd5b9060005260206000200154815260200190815260200160002060006101000a81548173ffffffffffffffffffffffffffffffffffffffff021916908373ffffffffffffffffffffffffffffffffffffffff16021790555060068181548110610b22577f4e487b7100000000000000000000000000000000000000000000000000000000600052603260045260246000fd5b906000526020600020016000815480929190610b3d906115b4565b91905055505b50565b6002600082815260200190815260200160002060030160009054906101000a900473ffffffffffffffffffffffffffffffffffffffff163373ffffffffffffffffffffffffffffffffffffffff1660008054906101000a900473ffffffffffffffffffffffffffffffffffffffff1673ffffffffffffffffffffffffffffffffffffffff161480610c0257508073ffffffffffffffffffffffffffffffffffffffff163373ffffffffffffffffffffffffffffffffffffffff16145b610c41576040517f08c379a0000000000000000000000000000000000000000000000000000000008152600401610c38906112cd565b60405180910390fd5b60016002600084815260200190815260200160002060030160146101000a81548160ff0219169083151502179055505050565b826002600060075481526020019081526020016000206000019080519060200190610ca0929190610e01565b50816002600060075481526020019081526020016000206001019080519060200190610ccd929190610e01565b5080600260006007548152602001908152602001600020600201819055503360026000600754815260200190815260200160002060030160006101000a81548173ffffffffffffffffffffffffffffffffffffffff021916908373ffffffffffffffffffffffffffffffffffffffff16021790555060066000908060018154018082558091505060019003906000526020600020016000909190919091505560076000815480929190610d7f906115b4565b9190505550505050565b600033905090565b60008054906101000a900473ffffffffffffffffffffffffffffffffffffffff1681565b600090565b6040518060a00160405280606081526020016060815260200160008152602001600073ffffffffffffffffffffffffffffffffffffffff1681526020016000151581525090565b828054610e0d90611551565b90600052602060002090601f016020900481019282610e2f5760008555610e76565b82601f10610e4857805160ff1916838001178555610e76565b82800160010185558215610e76579182015b82811115610e75578251825591602001919060010190610e5a565b5b509050610e839190610e87565b5090565b5b80821115610ea0576000816000905550600101610e88565b5090565b6000610eb7610eb28461136d565b611348565b905082815260208101848484011115610ecf57600080fd5b610eda84828561150f565b509392505050565b600082601f830112610ef357600080fd5b8135610f03848260208601610ea4565b91505092915050565b600081359050610f1b8161173c565b92915050565b600080600060608486031215610f3657600080fd5b600084013567ffffffffffffffff811115610f5057600080fd5b610f5c86828701610ee2565b935050602084013567ffffffffffffffff811115610f7957600080fd5b610f8586828701610ee2565b9250506040610f9686828701610f0c565b9150509250925092565b600060208284031215610fb257600080fd5b6000610fc084828501610f0c565b91505092915050565b60008060408385031215610fdc57600080fd5b6000610fea85828601610f0c565b9250506020610ffb85828601610f0c565b9150509250929050565b60006110118383611031565b60208301905092915050565b600061102983836111d3565b905092915050565b61103a816114c7565b82525050565b611049816114c7565b82525050565b600061105a826113be565b61106481856113f9565b935061106f8361139e565b8060005b838110156110a05781516110878882611005565b9750611092836113df565b925050600181019050611073565b5085935050505092915050565b60006110b8826113c9565b6110c2818561140a565b9350836020820285016110d4856113ae565b8060005b8581101561111057848403895281516110f1858261101d565b94506110fc836113ec565b925060208a019950506001810190506110d8565b50829750879550505050505092915050565b61112b816114d9565b82525050565b600061113c826113d4565b611146818561141b565b935061115681856020860161151e565b61115f8161168a565b840191505092915050565b600061117760188361142c565b91506111828261169b565b602082019050919050565b600061119a60258361142c565b91506111a5826116c4565b604082019050919050565b60006111bd600e8361142c565b91506111c882611713565b602082019050919050565b600060a08301600083015184820360008601526111f08282611131565b9150506020830151848203602086015261120a8282611131565b915050604083015161121f6040860182611250565b5060608301516112326060860182611031565b5060808301516112456080860182611122565b508091505092915050565b61125981611505565b82525050565b61126881611505565b82525050565b60006020820190506112836000830184611040565b92915050565b600060208201905081810360008301526112a3818461104f565b905092915050565b600060208201905081810360008301526112c581846110ad565b905092915050565b600060208201905081810360008301526112e68161116a565b9050919050565b600060208201905081810360008301526113068161118d565b9050919050565b60006020820190508181036000830152611326816111b0565b9050919050565b6000602082019050611342600083018461125f565b92915050565b6000611352611363565b905061135e8282611583565b919050565b6000604051905090565b600067ffffffffffffffff8211156113885761138761165b565b5b6113918261168a565b9050602081019050919050565b6000819050602082019050919050565b6000819050602082019050919050565b600081519050919050565b600081519050919050565b600081519050919050565b6000602082019050919050565b6000602082019050919050565b600082825260208201905092915050565b600082825260208201905092915050565b600082825260208201905092915050565b600082825260208201905092915050565b600061144882611505565b915061145383611505565b9250827fffffffffffffffffffffffffffffffffffffffffffffffffffffffffffffffff03821115611488576114876115fd565b5b828201905092915050565b600061149e82611505565b91506114a983611505565b9250828210156114bc576114bb6115fd565b5b828203905092915050565b60006114d2826114e5565b9050919050565b60008115159050919050565b600073ffffffffffffffffffffffffffffffffffffffff82169050919050565b6000819050919050565b82818337600083830152505050565b60005b8381101561153c578082015181840152602081019050611521565b8381111561154b576000848401525b50505050565b6000600282049050600182168061156957607f821691505b6020821081141561157d5761157c61162c565b5b50919050565b61158c8261168a565b810181811067ffffffffffffffff821117156115ab576115aa61165b565b5b80604052505050565b60006115bf82611505565b91507fffffffffffffffffffffffffffffffffffffffffffffffffffffffffffffffff8214156115f2576115f16115fd565b5b600182019050919050565b7f4e487b7100000000000000000000000000000000000000000000000000000000600052601160045260246000fd5b7f4e487b7100000000000000000000000000000000000000000000000000000000600052602260045260246000fd5b7f4e487b7100000000000000000000000000000000000000000000000000000000600052604160045260246000fd5b6000601f19601f8301169050919050565b7f4f6e6c79204f776e657220686176652061636365737320210000000000000000600082015250565b7f43616e6e6f74207769746864726177206d6f7265207468616e20546f74616c2060008201527f46756e6473000000000000000000000000000000000000000000000000000000602082015250565b7f556e417574686f72697365642021000000000000000000000000000000000000600082015250565b61174581611505565b811461175057600080fd5b5056fea2646970667358221220f144fb90f58e0d8d37ec6f713a295615f3df7fa6b23210494f7a2c0dcd3dbc7964736f6c63430008040033",
  "immutableReferences": {},
  "source": "// SPDX-License-Identifier: MIT\r\npragma solidity >=0.4.22 <0.9.0;\r\n\r\nimport \"./AdminContract.sol\";\r\nimport \"./LogContract.sol\"; \r\nimport \"./IFunds.sol\";\r\n\r\ncontract Funds is Admin,Log,IFunds{\r\n    \r\n    struct Fundraiser{\r\n        string name;\r\n        string description;\r\n        uint amount;\r\n        address creator;\r\n        bool stopped;\r\n    }\r\n\r\n    mapping(uint => Fundraiser) Fundraisers;\r\n    mapping(uint => mapping(address => bool)) addedDonors;\r\n    mapping(uint => mapping(uint => address)) index_to_donor;\r\n    mapping(uint => uint) Fundraisers_to_Funds;\r\n    uint [] numberofDonors;\r\n    uint numberOfFundraisers;\r\n \r\n    modifier limitAmount(uint totalFunds,uint amount){\r\n        require(amount <= totalFunds , \"Cannot withdraw more than Total Funds\");\r\n        _;\r\n    }\r\n    modifier onlyFundraiserOwner(uint fundraiser){\r\n        require(Fundraisers[fundraiser].creator == msg.sender , \"UnAuthorised !\");\r\n        _;\r\n    }\r\n\r\n    function emitLog() override public view returns(address){\r\n        return msg.sender;\r\n    }\r\n\r\n    function createFundraiser(string memory name , string memory description , uint targetAmount)external{\r\n        Fundraisers[numberOfFundraisers].name = name;\r\n        Fundraisers[numberOfFundraisers].description = description; \r\n        Fundraisers[numberOfFundraisers].amount = targetAmount; \r\n        Fundraisers[numberOfFundraisers].creator = msg.sender; \r\n        numberofDonors.push(0);\r\n        numberOfFundraisers++;\r\n    }\r\n\r\n    function getFundraisers()external view returns (Fundraiser[] memory){\r\n        Fundraiser [] memory fundraisers = new Fundraiser [](numberOfFundraisers);\r\n        for (uint i = 0 ;i<numberOfFundraisers; i++){\r\n            fundraisers[i] = Fundraisers[i];\r\n        }\r\n        return fundraisers;\r\n    }\r\n\r\n    function withdraw(uint amount,uint fundraiser)external override onlyFundraiserOwner(fundraiser) limitAmount(Fundraisers_to_Funds[fundraiser],amount){\r\n        payable(msg.sender).transfer(amount);\r\n        Fundraisers_to_Funds[fundraiser] -= amount;\r\n    }\r\n\r\n    function addFunds(uint fundraiser) override external payable{\r\n        if(addedDonors[fundraiser][msg.sender] == false){\r\n            addedDonors[fundraiser][msg.sender] = true;\r\n            Fundraisers_to_Funds[fundraiser] = Fundraisers_to_Funds[fundraiser] + msg.value;\r\n            index_to_donor[fundraiser][numberofDonors[fundraiser]] = msg.sender;\r\n            numberofDonors[fundraiser]++;\r\n        }\r\n    }\r\n    // function transferOwnership(address newOwner) external onlyOwner(){\r\n    //     owner = newOwner;\r\n    // }\r\n    function getDonatorsOfFundraiser(uint fundraiser) external view returns (address[] memory){\r\n        address [] memory donators = new address [](numberofDonors[fundraiser]);\r\n        for(uint i = 0; i<numberofDonors[fundraiser]; i++){\r\n            donators[i] = index_to_donor[fundraiser][i];\r\n        }\r\n        return donators;\r\n    }\r\n\r\n    function stopFunding(uint fundraiser) external onlyCreatorOrAdmin(Fundraisers[fundraiser].creator){\r\n        Fundraisers[fundraiser].stopped = true;\r\n    }\r\n\r\n    function startFunding(uint fundraiser) external onlyAdmin(){\r\n        Fundraisers[fundraiser].stopped = false;\r\n    }\r\n}\r\n\r\n//const instance = await Funds.deployed()\r\n// instance.addFunds({value:\"10000000000000000\",from:accounts[1]})\r\n//instance.withdraw(\"10000000000000000\",{from:accounts[1]})",
  "sourcePath": "D:\\Development\\blockchain\\faucet\\contracts\\FundsContract.sol",
  "compiler": {
    "name": "solc",
    "version": "0.8.4+commit.c7e474f2.Emscripten.clang"
  },
  "schemaVersion": "3.4.5",
  "updatedAt": "2022-03-26T12:07:06.850Z",
  "networkType": "ethereum",
  "devdoc": {
    "kind": "dev",
    "methods": {},
    "version": 1
  },
  "userdoc": {
    "kind": "user",
    "methods": {},
    "version": 1
  }
}