{
  "contractName": "Funds",
  "abi": [
    {
      "inputs": [],
      "stateMutability": "nonpayable",
      "type": "constructor"
    },
    {
      "inputs": [],
      "name": "owner",
      "outputs": [
        {
          "internalType": "address",
          "name": "",
          "type": "address"
        }
      ],
      "stateMutability": "view",
      "type": "function",
      "constant": true
    },
    {
      "stateMutability": "payable",
      "type": "receive",
      "payable": true
    },
    {
      "inputs": [],
      "name": "addFunds",
      "outputs": [],
      "stateMutability": "payable",
      "type": "function",
      "payable": true
    },
    {
      "inputs": [
        {
          "internalType": "address",
          "name": "newOwner",
          "type": "address"
        }
      ],
      "name": "transferOwnership",
      "outputs": [],
      "stateMutability": "nonpayable",
      "type": "function"
    },
    {
      "inputs": [
        {
          "internalType": "uint256",
          "name": "amount",
          "type": "uint256"
        }
      ],
      "name": "withdraw",
      "outputs": [],
      "stateMutability": "nonpayable",
      "type": "function"
    },
    {
      "inputs": [],
      "name": "getDonators",
      "outputs": [
        {
          "internalType": "address[]",
          "name": "",
          "type": "address[]"
        }
      ],
      "stateMutability": "view",
      "type": "function",
      "constant": true
    }
  ],
  "bytecode": "0x608060405234801561001057600080fd5b5033600260006101000a81548173ffffffffffffffffffffffffffffffffffffffff021916908373ffffffffffffffffffffffffffffffffffffffff160217905550610935806100616000396000f3fe60806040526004361061004e5760003560e01c80632e1a7d4d1461005a5780638da5cb5b14610083578063a26759cb146100ae578063bf1482fa146100b8578063f2fde38b146100e357610055565b3661005557005b600080fd5b34801561006657600080fd5b50610081600480360381019061007c91906105a4565b61010c565b005b34801561008f57600080fd5b506100986101a3565b6040516100a591906106a7565b60405180910390f35b6100b66101c9565b005b3480156100c457600080fd5b506100cd610317565b6040516100da91906106c2565b60405180910390f35b3480156100ef57600080fd5b5061010a6004803603810190610105919061057b565b61047d565b005b80670de0b6b3a7640000811115610158576040517f08c379a000000000000000000000000000000000000000000000000000000000815260040161014f906106e4565b60405180910390fd5b3373ffffffffffffffffffffffffffffffffffffffff166108fc839081150290604051600060405180830381858888f1935050505015801561019e573d6000803e3d6000fd5b505050565b600260009054906101000a900473ffffffffffffffffffffffffffffffffffffffff1681565b600015156000803373ffffffffffffffffffffffffffffffffffffffff1673ffffffffffffffffffffffffffffffffffffffff16815260200190815260200160002060009054906101000a900460ff16151514156103155760016000803373ffffffffffffffffffffffffffffffffffffffff1673ffffffffffffffffffffffffffffffffffffffff16815260200190815260200160002060006101000a81548160ff0219169083151502179055503360016000600260149054906101000a900460ff1660ff16815260200190815260200160002060006101000a81548173ffffffffffffffffffffffffffffffffffffffff021916908373ffffffffffffffffffffffffffffffffffffffff1602179055506002601481819054906101000a900460ff16809291906102fb90610800565b91906101000a81548160ff021916908360ff160217905550505b565b60606000600260149054906101000a900460ff1660ff1667ffffffffffffffff81111561036d577f4e487b7100000000000000000000000000000000000000000000000000000000600052604160045260246000fd5b60405190808252806020026020018201604052801561039b5781602001602082028036833780820191505090505b50905060005b600260149054906101000a900460ff1660ff16811015610475576001600082815260200190815260200160002060009054906101000a900473ffffffffffffffffffffffffffffffffffffffff16828281518110610428577f4e487b7100000000000000000000000000000000000000000000000000000000600052603260045260246000fd5b602002602001019073ffffffffffffffffffffffffffffffffffffffff16908173ffffffffffffffffffffffffffffffffffffffff1681525050808061046d906107b7565b9150506103a1565b508091505090565b3373ffffffffffffffffffffffffffffffffffffffff16600260009054906101000a900473ffffffffffffffffffffffffffffffffffffffff1673ffffffffffffffffffffffffffffffffffffffff161461050d576040517f08c379a000000000000000000000000000000000000000000000000000000000815260040161050490610704565b60405180910390fd5b80600260006101000a81548173ffffffffffffffffffffffffffffffffffffffff021916908373ffffffffffffffffffffffffffffffffffffffff16021790555050565b600081359050610560816108d1565b92915050565b600081359050610575816108e8565b92915050565b60006020828403121561058d57600080fd5b600061059b84828501610551565b91505092915050565b6000602082840312156105b657600080fd5b60006105c484828501610566565b91505092915050565b60006105d983836105e5565b60208301905092915050565b6105ee8161076e565b82525050565b6105fd8161076e565b82525050565b600061060e82610734565b610618818561074c565b935061062383610724565b8060005b8381101561065457815161063b88826105cd565b97506106468361073f565b925050600181019050610627565b5085935050505092915050565b600061066e60218361075d565b915061067982610859565b604082019050919050565b600061069160188361075d565b915061069c826108a8565b602082019050919050565b60006020820190506106bc60008301846105f4565b92915050565b600060208201905081810360008301526106dc8184610603565b905092915050565b600060208201905081810360008301526106fd81610661565b9050919050565b6000602082019050818103600083015261071d81610684565b9050919050565b6000819050602082019050919050565b600081519050919050565b6000602082019050919050565b600082825260208201905092915050565b600082825260208201905092915050565b600061077982610780565b9050919050565b600073ffffffffffffffffffffffffffffffffffffffff82169050919050565b6000819050919050565b600060ff82169050919050565b60006107c2826107a0565b91507fffffffffffffffffffffffffffffffffffffffffffffffffffffffffffffffff8214156107f5576107f461082a565b5b600182019050919050565b600061080b826107aa565b915060ff82141561081f5761081e61082a565b5b600182019050919050565b7f4e487b7100000000000000000000000000000000000000000000000000000000600052601160045260246000fd5b7f43616e6e6f74207769746864726177206d6f7265207468616e2031204574686560008201527f7200000000000000000000000000000000000000000000000000000000000000602082015250565b7f4f6e6c79204f776e657220686176652061636365737320210000000000000000600082015250565b6108da8161076e565b81146108e557600080fd5b50565b6108f1816107a0565b81146108fc57600080fd5b5056fea264697066735822122055dc7bc57bbe20d0303b43f94aadeb5168c164f5aeb01c96988c9b6931454a5c64736f6c63430008040033",
  "immutableReferences": {},
  "source": "// SPDX-License-Identifier: MIT\r\npragma solidity >=0.4.22 <0.9.0;\r\n\r\ncontract Funds{\r\n    mapping(address => bool) addedDonors;\r\n    mapping(uint => address) index_to_donor;\r\n\r\n    address public owner;\r\n    uint8 numberOfDonors;\r\n\r\n    constructor(){\r\n        owner = msg.sender;\r\n    }\r\n\r\n    modifier limitAmount(uint amount){\r\n        require(amount <= 1000000000000000000 , \"Cannot withdraw more than 1 Ether\");\r\n        _;\r\n    }\r\n    modifier onlyOwner(){\r\n        require(owner == msg.sender,\"Only Owner have access !\");\r\n        _;\r\n    }\r\n    receive() external payable{}\r\n    function addFunds() external payable{\r\n        if(addedDonors[msg.sender] == false){\r\n            addedDonors[msg.sender] = true;\r\n            index_to_donor[numberOfDonors] = msg.sender;\r\n            numberOfDonors++;\r\n        }\r\n    }\r\n    function transferOwnership(address newOwner) external onlyOwner(){\r\n        owner = newOwner;\r\n    }\r\n    function withdraw(uint amount)external limitAmount(amount){\r\n        payable(msg.sender).transfer(amount);\r\n    }\r\n    function getDonators() external view returns (address[] memory){\r\n        address [] memory donators = new address [](numberOfDonors);\r\n        for(uint i = 0; i<numberOfDonors; i++){\r\n            donators[i] = index_to_donor[i];\r\n        }\r\n        return donators;\r\n    }\r\n}\r\n\r\n//const instance = await Funds.deployed()\r\n// instance.addFunds({value:\"10000000000000000\",from:accounts[1]})\r\n//instance.withdraw(\"10000000000000000\",{from:accounts[1]})",
  "sourcePath": "D:\\Development\\blockchain\\faucet\\contracts\\FundsContract.sol",
  "compiler": {
    "name": "solc",
    "version": "0.8.4+commit.c7e474f2.Emscripten.clang"
  },
  "schemaVersion": "3.4.5",
  "updatedAt": "2022-03-03T17:38:26.936Z",
  "networkType": "ethereum",
  "devdoc": {
    "kind": "dev",
    "methods": {},
    "version": 1
  },
  "userdoc": {
    "kind": "user",
    "methods": {},
    "version": 1
  }
}