{
  "contractName": "Funds",
  "abi": [
    {
      "inputs": [
        {
          "internalType": "uint256",
          "name": "",
          "type": "uint256"
        }
      ],
      "name": "donators",
      "outputs": [
        {
          "internalType": "address",
          "name": "",
          "type": "address"
        }
      ],
      "stateMutability": "view",
      "type": "function",
      "constant": true
    },
    {
      "stateMutability": "payable",
      "type": "receive",
      "payable": true
    },
    {
      "inputs": [],
      "name": "addFunds",
      "outputs": [],
      "stateMutability": "payable",
      "type": "function",
      "payable": true
    }
  ],
  "bytecode": "0x608060405234801561001057600080fd5b50610215806100206000396000f3fe60806040526004361061002d5760003560e01c8063a26759cb14610039578063ac62f5661461004357610034565b3661003457005b600080fd5b610041610080565b005b34801561004f57600080fd5b5061006a60048036038101906100659190610139565b6100e5565b6040516100779190610171565b60405180910390f35b6000339080600181540180825580915050600190039060005260206000200160009091909190916101000a81548173ffffffffffffffffffffffffffffffffffffffff021916908373ffffffffffffffffffffffffffffffffffffffff160217905550565b600081815481106100f557600080fd5b906000526020600020016000915054906101000a900473ffffffffffffffffffffffffffffffffffffffff1681565b600081359050610133816101c8565b92915050565b60006020828403121561014b57600080fd5b600061015984828501610124565b91505092915050565b61016b8161018c565b82525050565b60006020820190506101866000830184610162565b92915050565b60006101978261019e565b9050919050565b600073ffffffffffffffffffffffffffffffffffffffff82169050919050565b6000819050919050565b6101d1816101be565b81146101dc57600080fd5b5056fea26469706673582212209aed695695126184838d7f41f1231c4d55623f67ecfb81f3041a0aa245bb148a64736f6c63430008040033",
  "immutableReferences": {},
  "source": "// SPDX-License-Identifier: MIT\r\npragma solidity >=0.4.22 <0.9.0;\r\n\r\ncontract Funds{\r\n    address[] public donators ;\r\n    receive() external payable{}\r\n    function addFunds() external payable{\r\n        donators.push(msg.sender);\r\n    }\r\n}",
  "sourcePath": "D:\\Development\\blockchain\\faucet\\contracts\\FundsContract.sol",
  "compiler": {
    "name": "solc",
    "version": "0.8.4+commit.c7e474f2.Emscripten.clang"
  },
  "schemaVersion": "3.4.5",
  "updatedAt": "2022-02-26T10:44:57.418Z",
  "networkType": "ethereum",
  "devdoc": {
    "kind": "dev",
    "methods": {},
    "version": 1
  },
  "userdoc": {
    "kind": "user",
    "methods": {},
    "version": 1
  }
}