{
  "contractName": "Funds",
  "abi": [
    {
      "inputs": [],
      "name": "owner",
      "outputs": [
        {
          "internalType": "address",
          "name": "",
          "type": "address"
        }
      ],
      "stateMutability": "view",
      "type": "function",
      "constant": true
    },
    {
      "inputs": [],
      "name": "test",
      "outputs": [
        {
          "internalType": "uint256",
          "name": "",
          "type": "uint256"
        }
      ],
      "stateMutability": "pure",
      "type": "function",
      "constant": true
    },
    {
      "inputs": [],
      "name": "testNum",
      "outputs": [
        {
          "internalType": "uint256",
          "name": "",
          "type": "uint256"
        }
      ],
      "stateMutability": "view",
      "type": "function",
      "constant": true
    },
    {
      "stateMutability": "payable",
      "type": "receive",
      "payable": true
    },
    {
      "inputs": [],
      "name": "emitLog",
      "outputs": [
        {
          "internalType": "address",
          "name": "",
          "type": "address"
        }
      ],
      "stateMutability": "view",
      "type": "function",
      "constant": true
    },
    {
      "inputs": [
        {
          "internalType": "uint256",
          "name": "fundraiser",
          "type": "uint256"
        }
      ],
      "name": "addFunds",
      "outputs": [],
      "stateMutability": "payable",
      "type": "function",
      "payable": true
    },
    {
      "inputs": [
        {
          "internalType": "uint256",
          "name": "amount",
          "type": "uint256"
        },
        {
          "internalType": "uint256",
          "name": "fundraiser",
          "type": "uint256"
        }
      ],
      "name": "withdraw",
      "outputs": [],
      "stateMutability": "nonpayable",
      "type": "function"
    },
    {
      "inputs": [
        {
          "internalType": "uint256",
          "name": "fundraiser",
          "type": "uint256"
        }
      ],
      "name": "getDonatorsOfFundraiser",
      "outputs": [
        {
          "internalType": "address[]",
          "name": "",
          "type": "address[]"
        }
      ],
      "stateMutability": "view",
      "type": "function",
      "constant": true
    },
    {
      "inputs": [
        {
          "internalType": "string",
          "name": "name",
          "type": "string"
        },
        {
          "internalType": "string",
          "name": "description",
          "type": "string"
        },
        {
          "internalType": "uint256",
          "name": "targetAmount",
          "type": "uint256"
        }
      ],
      "name": "createFundraiser",
      "outputs": [],
      "stateMutability": "nonpayable",
      "type": "function"
    }
  ],
  "bytecode": "0x608060405234801561001057600080fd5b50336000806101000a81548173ffffffffffffffffffffffffffffffffffffffff021916908373ffffffffffffffffffffffffffffffffffffffff1602179055506103e8600181905550610f97806100696000396000f3fe60806040526004361061007f5760003560e01c8063be9997051161004e578063be99970514610147578063c50870b114610163578063f42c13bf1461018c578063f8a8fd6d146101b757610086565b806340541bad1461008b578063441a3e70146100c85780638da5cb5b146100f1578063ae28f1ed1461011c57610086565b3661008657005b600080fd5b34801561009757600080fd5b506100b260048036038101906100ad9190610a2d565b6101e2565b6040516100bf9190610b96565b60405180910390f35b3480156100d457600080fd5b506100ef60048036038101906100ea9190610a56565b6103bf565b005b3480156100fd57600080fd5b50610106610534565b6040516101139190610b7b565b60405180910390f35b34801561012857600080fd5b50610131610558565b60405161013e9190610bf8565b60405180910390f35b610161600480360381019061015c9190610a2d565b61055e565b005b34801561016f57600080fd5b5061018a600480360381019061018591906109ae565b61076c565b005b34801561019857600080fd5b506101a1610881565b6040516101ae9190610b7b565b60405180910390f35b3480156101c357600080fd5b506101cc610889565b6040516101d99190610bf8565b60405180910390f35b6060600060068381548110610220577f4e487b7100000000000000000000000000000000000000000000000000000000600052603260045260246000fd5b906000526020600020015467ffffffffffffffff81111561026a577f4e487b7100000000000000000000000000000000000000000000000000000000600052604160045260246000fd5b6040519080825280602002602001820160405280156102985781602001602082028036833780820191505090505b50905060005b600684815481106102d8577f4e487b7100000000000000000000000000000000000000000000000000000000600052603260045260246000fd5b90600052602060002001548110156103b55760046000858152602001908152602001600020600082815260200190815260200160002060009054906101000a900473ffffffffffffffffffffffffffffffffffffffff16828281518110610368577f4e487b7100000000000000000000000000000000000000000000000000000000600052603260045260246000fd5b602002602001019073ffffffffffffffffffffffffffffffffffffffff16908173ffffffffffffffffffffffffffffffffffffffff168152505080806103ad90610deb565b91505061029e565b5080915050919050565b803373ffffffffffffffffffffffffffffffffffffffff166002600083815260200190815260200160002060030160009054906101000a900473ffffffffffffffffffffffffffffffffffffffff1673ffffffffffffffffffffffffffffffffffffffff1614610464576040517f08c379a000000000000000000000000000000000000000000000000000000000815260040161045b90610bd8565b60405180910390fd5b600560008381526020019081526020016000205483818111156104bc576040517f08c379a00000000000000000000000000000000000000000000000000000000081526004016104b390610bb8565b60405180910390fd5b3373ffffffffffffffffffffffffffffffffffffffff166108fc869081150290604051600060405180830381858888f19350505050158015610502573d6000803e3d6000fd5b50846005600086815260200190815260200160002060008282546105269190610d09565b925050819055505050505050565b60008054906101000a900473ffffffffffffffffffffffffffffffffffffffff1681565b60015481565b600015156003600083815260200190815260200160002060003373ffffffffffffffffffffffffffffffffffffffff1673ffffffffffffffffffffffffffffffffffffffff16815260200190815260200160002060009054906101000a900460ff16151514156107695760016003600083815260200190815260200160002060003373ffffffffffffffffffffffffffffffffffffffff1673ffffffffffffffffffffffffffffffffffffffff16815260200190815260200160002060006101000a81548160ff0219169083151502179055503460056000838152602001908152602001600020546106509190610cb3565b600560008381526020019081526020016000208190555033600460008381526020019081526020016000206000600684815481106106b7577f4e487b7100000000000000000000000000000000000000000000000000000000600052603260045260246000fd5b9060005260206000200154815260200190815260200160002060006101000a81548173ffffffffffffffffffffffffffffffffffffffff021916908373ffffffffffffffffffffffffffffffffffffffff16021790555060068181548110610748577f4e487b7100000000000000000000000000000000000000000000000000000000600052603260045260246000fd5b90600052602060002001600081548092919061076390610deb565b91905055505b50565b82600260006007548152602001908152602001600020600001908051906020019061079892919061088e565b508160026000600754815260200190815260200160002060010190805190602001906107c592919061088e565b5080600260006007548152602001908152602001600020600201819055503360026000600754815260200190815260200160002060030160006101000a81548173ffffffffffffffffffffffffffffffffffffffff021916908373ffffffffffffffffffffffffffffffffffffffff1602179055506006600090806001815401808255809150506001900390600052602060002001600090919091909150556007600081548092919061087790610deb565b9190505550505050565b600033905090565b600090565b82805461089a90610d88565b90600052602060002090601f0160209004810192826108bc5760008555610903565b82601f106108d557805160ff1916838001178555610903565b82800160010185558215610903579182015b828111156109025782518255916020019190600101906108e7565b5b5090506109109190610914565b5090565b5b8082111561092d576000816000905550600101610915565b5090565b600061094461093f84610c38565b610c13565b90508281526020810184848401111561095c57600080fd5b610967848285610d79565b509392505050565b600082601f83011261098057600080fd5b8135610990848260208601610931565b91505092915050565b6000813590506109a881610f4a565b92915050565b6000806000606084860312156109c357600080fd5b600084013567ffffffffffffffff8111156109dd57600080fd5b6109e98682870161096f565b935050602084013567ffffffffffffffff811115610a0657600080fd5b610a128682870161096f565b9250506040610a2386828701610999565b9150509250925092565b600060208284031215610a3f57600080fd5b6000610a4d84828501610999565b91505092915050565b60008060408385031215610a6957600080fd5b6000610a7785828601610999565b9250506020610a8885828601610999565b9150509250929050565b6000610a9e8383610aaa565b60208301905092915050565b610ab381610d3d565b82525050565b610ac281610d3d565b82525050565b6000610ad382610c79565b610add8185610c91565b9350610ae883610c69565b8060005b83811015610b19578151610b008882610a92565b9750610b0b83610c84565b925050600181019050610aec565b5085935050505092915050565b6000610b33602583610ca2565b9150610b3e82610ed2565b604082019050919050565b6000610b56600e83610ca2565b9150610b6182610f21565b602082019050919050565b610b7581610d6f565b82525050565b6000602082019050610b906000830184610ab9565b92915050565b60006020820190508181036000830152610bb08184610ac8565b905092915050565b60006020820190508181036000830152610bd181610b26565b9050919050565b60006020820190508181036000830152610bf181610b49565b9050919050565b6000602082019050610c0d6000830184610b6c565b92915050565b6000610c1d610c2e565b9050610c298282610dba565b919050565b6000604051905090565b600067ffffffffffffffff821115610c5357610c52610e92565b5b610c5c82610ec1565b9050602081019050919050565b6000819050602082019050919050565b600081519050919050565b6000602082019050919050565b600082825260208201905092915050565b600082825260208201905092915050565b6000610cbe82610d6f565b9150610cc983610d6f565b9250827fffffffffffffffffffffffffffffffffffffffffffffffffffffffffffffffff03821115610cfe57610cfd610e34565b5b828201905092915050565b6000610d1482610d6f565b9150610d1f83610d6f565b925082821015610d3257610d31610e34565b5b828203905092915050565b6000610d4882610d4f565b9050919050565b600073ffffffffffffffffffffffffffffffffffffffff82169050919050565b6000819050919050565b82818337600083830152505050565b60006002820490506001821680610da057607f821691505b60208210811415610db457610db3610e63565b5b50919050565b610dc382610ec1565b810181811067ffffffffffffffff82111715610de257610de1610e92565b5b80604052505050565b6000610df682610d6f565b91507fffffffffffffffffffffffffffffffffffffffffffffffffffffffffffffffff821415610e2957610e28610e34565b5b600182019050919050565b7f4e487b7100000000000000000000000000000000000000000000000000000000600052601160045260246000fd5b7f4e487b7100000000000000000000000000000000000000000000000000000000600052602260045260246000fd5b7f4e487b7100000000000000000000000000000000000000000000000000000000600052604160045260246000fd5b6000601f19601f8301169050919050565b7f43616e6e6f74207769746864726177206d6f7265207468616e20546f74616c2060008201527f46756e6473000000000000000000000000000000000000000000000000000000602082015250565b7f556e417574686f72697365642021000000000000000000000000000000000000600082015250565b610f5381610d6f565b8114610f5e57600080fd5b5056fea2646970667358221220e733377b9af845744b1a5fa429ec372e738528af2d0d7f87852c907d81a7144364736f6c63430008040033",
  "immutableReferences": {},
  "source": "// SPDX-License-Identifier: MIT\r\npragma solidity >=0.4.22 <0.9.0;\r\n\r\nimport \"./OwnerContract.sol\";\r\nimport \"./LogContract.sol\"; \r\nimport \"./IFunds.sol\";\r\n\r\ncontract Funds is Owner,Log,IFunds{\r\n    \r\n    struct Fundraiser{\r\n        string name;\r\n        string description;\r\n        uint amount;\r\n        address creator;\r\n    }\r\n\r\n    mapping(uint => Fundraiser) Fundraisers;\r\n    mapping(uint => mapping(address => bool)) addedDonors;\r\n    mapping(uint => mapping(uint => address)) index_to_donor;\r\n    mapping(uint => uint) Fundraisers_to_Funds;\r\n    uint [] numberofDonors;\r\n    uint numberOfFundraisers;\r\n \r\n    modifier limitAmount(uint totalFunds,uint amount){\r\n        require(amount <= totalFunds , \"Cannot withdraw more than Total Funds\");\r\n        _;\r\n    }\r\n    modifier onlyFundraiserOwner(uint fundraiser){\r\n        require(Fundraisers[fundraiser].creator == msg.sender , \"UnAuthorised !\");\r\n        _;\r\n    }\r\n\r\n    function emitLog() override public view returns(address){\r\n        return msg.sender;\r\n    }\r\n    // function read()external pure returns(string){\r\n    //     return Name;\r\n    // }\r\n\r\n    receive() external payable{}\r\n    function addFunds(uint fundraiser) override external payable{\r\n        if(addedDonors[fundraiser][msg.sender] == false){\r\n            addedDonors[fundraiser][msg.sender] = true;\r\n            Fundraisers_to_Funds[fundraiser] = Fundraisers_to_Funds[fundraiser] + msg.value;\r\n            index_to_donor[fundraiser][numberofDonors[fundraiser]] = msg.sender;\r\n            numberofDonors[fundraiser]++;\r\n        }\r\n    }\r\n    // function transferOwnership(address newOwner) external onlyOwner(){\r\n    //     owner = newOwner;\r\n    // }\r\n    function withdraw(uint amount,uint fundraiser)external override onlyFundraiserOwner(fundraiser) limitAmount(Fundraisers_to_Funds[fundraiser],amount){\r\n        payable(msg.sender).transfer(amount);\r\n        Fundraisers_to_Funds[fundraiser] -= amount;\r\n    }\r\n\r\n    function getDonatorsOfFundraiser(uint fundraiser) external view returns (address[] memory){\r\n        address [] memory donators = new address [](numberofDonors[fundraiser]);\r\n        for(uint i = 0; i<numberofDonors[fundraiser]; i++){\r\n            donators[i] = index_to_donor[fundraiser][i];\r\n        }\r\n        return donators;\r\n    }\r\n\r\n    function createFundraiser(string memory name , string memory description , uint targetAmount)external{\r\n        Fundraisers[numberOfFundraisers].name = name;\r\n        Fundraisers[numberOfFundraisers].description = description; \r\n        Fundraisers[numberOfFundraisers].amount = targetAmount; \r\n        Fundraisers[numberOfFundraisers].creator = msg.sender; \r\n        numberofDonors.push(0);\r\n        numberOfFundraisers++;\r\n    }\r\n}\r\n\r\n//const instance = await Funds.deployed()\r\n// instance.addFunds({value:\"10000000000000000\",from:accounts[1]})\r\n//instance.withdraw(\"10000000000000000\",{from:accounts[1]})",
  "sourcePath": "D:\\Development\\blockchain\\faucet\\contracts\\FundsContract.sol",
  "compiler": {
    "name": "solc",
    "version": "0.8.4+commit.c7e474f2.Emscripten.clang"
  },
  "schemaVersion": "3.4.5",
  "updatedAt": "2022-03-25T09:17:50.418Z",
  "networkType": "ethereum",
  "devdoc": {
    "kind": "dev",
    "methods": {},
    "version": 1
  },
  "userdoc": {
    "kind": "user",
    "methods": {},
    "version": 1
  }
}