{
  "contractName": "Funds",
  "abi": [
    {
      "inputs": [],
      "name": "admin",
      "outputs": [
        {
          "internalType": "address",
          "name": "",
          "type": "address"
        }
      ],
      "stateMutability": "view",
      "type": "function",
      "constant": true
    },
    {
      "inputs": [],
      "name": "test",
      "outputs": [
        {
          "internalType": "uint256",
          "name": "",
          "type": "uint256"
        }
      ],
      "stateMutability": "pure",
      "type": "function",
      "constant": true
    },
    {
      "inputs": [],
      "name": "testNum",
      "outputs": [
        {
          "internalType": "uint256",
          "name": "",
          "type": "uint256"
        }
      ],
      "stateMutability": "view",
      "type": "function",
      "constant": true
    },
    {
      "inputs": [],
      "name": "emitLog",
      "outputs": [
        {
          "internalType": "address",
          "name": "",
          "type": "address"
        }
      ],
      "stateMutability": "view",
      "type": "function",
      "constant": true
    },
    {
      "inputs": [
        {
          "internalType": "string",
          "name": "name",
          "type": "string"
        },
        {
          "internalType": "string",
          "name": "description",
          "type": "string"
        },
        {
          "internalType": "uint256",
          "name": "targetAmount",
          "type": "uint256"
        }
      ],
      "name": "createFundraiser",
      "outputs": [],
      "stateMutability": "nonpayable",
      "type": "function"
    },
    {
      "inputs": [],
      "name": "getFundraisers",
      "outputs": [
        {
          "components": [
            {
              "internalType": "string",
              "name": "name",
              "type": "string"
            },
            {
              "internalType": "string",
              "name": "description",
              "type": "string"
            },
            {
              "internalType": "uint256",
              "name": "amount",
              "type": "uint256"
            },
            {
              "internalType": "address",
              "name": "creator",
              "type": "address"
            },
            {
              "internalType": "bool",
              "name": "stopped",
              "type": "bool"
            }
          ],
          "internalType": "struct Funds.Fundraiser[]",
          "name": "",
          "type": "tuple[]"
        }
      ],
      "stateMutability": "view",
      "type": "function",
      "constant": true
    },
    {
      "inputs": [
        {
          "internalType": "uint256",
          "name": "amount",
          "type": "uint256"
        },
        {
          "internalType": "uint256",
          "name": "fundraiser",
          "type": "uint256"
        }
      ],
      "name": "withdraw",
      "outputs": [],
      "stateMutability": "nonpayable",
      "type": "function"
    },
    {
      "inputs": [
        {
          "internalType": "uint256",
          "name": "fundraiser",
          "type": "uint256"
        }
      ],
      "name": "addFunds",
      "outputs": [],
      "stateMutability": "payable",
      "type": "function",
      "payable": true
    },
    {
      "inputs": [
        {
          "internalType": "uint256",
          "name": "fundraiser",
          "type": "uint256"
        }
      ],
      "name": "getDonatorsOfFundraiser",
      "outputs": [
        {
          "internalType": "address[]",
          "name": "",
          "type": "address[]"
        }
      ],
      "stateMutability": "view",
      "type": "function",
      "constant": true
    },
    {
      "inputs": [
        {
          "internalType": "uint256",
          "name": "fundraiser",
          "type": "uint256"
        }
      ],
      "name": "stopFunding",
      "outputs": [],
      "stateMutability": "nonpayable",
      "type": "function"
    },
    {
      "inputs": [
        {
          "internalType": "uint256",
          "name": "fundraiser",
          "type": "uint256"
        }
      ],
      "name": "startFunding",
      "outputs": [],
      "stateMutability": "nonpayable",
      "type": "function"
    }
  ],
  "bytecode": "0x608060405234801561001057600080fd5b50336000806101000a81548173ffffffffffffffffffffffffffffffffffffffff021916908373ffffffffffffffffffffffffffffffffffffffff1602179055506103e860018190555061199f806100696000396000f3fe60806040526004361061009c5760003560e01c8063be99970511610064578063be99970514610186578063bee2ecc0146101a2578063c50870b1146101cb578063f42c13bf146101f4578063f851a4401461021f578063f8a8fd6d1461024a5761009c565b806340541bad146100a1578063441a3e70146100de5780636b86c948146101075780638e028d4014610130578063ae28f1ed1461015b575b600080fd5b3480156100ad57600080fd5b506100c860048036038101906100c39190611171565b610275565b6040516100d5919061145a565b60405180910390f35b3480156100ea57600080fd5b506101056004803603810190610100919061119a565b6104a4565b005b34801561011357600080fd5b5061012e60048036038101906101299190611171565b610619565b005b34801561013c57600080fd5b506101456106d9565b604051610152919061147c565b60405180910390f35b34801561016757600080fd5b506101706109c0565b60405161017d91906114fe565b60405180910390f35b6101a0600480360381019061019b9190611171565b6109c6565b005b3480156101ae57600080fd5b506101c960048036038101906101c49190611171565b610c3d565b005b3480156101d757600080fd5b506101f260048036038101906101ed91906110f2565b610d6b565b005b34801561020057600080fd5b50610209610f5a565b604051610216919061143f565b60405180910390f35b34801561022b57600080fd5b50610234610f62565b604051610241919061143f565b60405180910390f35b34801561025657600080fd5b5061025f610f86565b60405161026c91906114fe565b60405180910390f35b60606000600683815481106102b3577f4e487b7100000000000000000000000000000000000000000000000000000000600052603260045260246000fd5b90600052602060002090600491828204019190066008029054906101000a900467ffffffffffffffff1667ffffffffffffffff1667ffffffffffffffff811115610326577f4e487b7100000000000000000000000000000000000000000000000000000000600052604160045260246000fd5b6040519080825280602002602001820160405280156103545781602001602082028036833780820191505090505b50905060005b60068481548110610394577f4e487b7100000000000000000000000000000000000000000000000000000000600052603260045260246000fd5b90600052602060002090600491828204019190066008029054906101000a900467ffffffffffffffff1667ffffffffffffffff1681101561049a5760046000858152602001908152602001600020600082815260200190815260200160002060009054906101000a900473ffffffffffffffffffffffffffffffffffffffff1682828151811061044d577f4e487b7100000000000000000000000000000000000000000000000000000000600052603260045260246000fd5b602002602001019073ffffffffffffffffffffffffffffffffffffffff16908173ffffffffffffffffffffffffffffffffffffffff1681525050808061049290611799565b91505061035a565b5080915050919050565b803373ffffffffffffffffffffffffffffffffffffffff166002600083815260200190815260200160002060030160009054906101000a900473ffffffffffffffffffffffffffffffffffffffff1673ffffffffffffffffffffffffffffffffffffffff1614610549576040517f08c379a0000000000000000000000000000000000000000000000000000000008152600401610540906114de565b60405180910390fd5b600560008381526020019081526020016000205483818111156105a1576040517f08c379a0000000000000000000000000000000000000000000000000000000008152600401610598906114be565b60405180910390fd5b3373ffffffffffffffffffffffffffffffffffffffff166108fc869081150290604051600060405180830381858888f193505050501580156105e7573d6000803e3d6000fd5b508460056000868152602001908152602001600020600082825461060b9190611664565b925050819055505050505050565b3373ffffffffffffffffffffffffffffffffffffffff1660008054906101000a900473ffffffffffffffffffffffffffffffffffffffff1673ffffffffffffffffffffffffffffffffffffffff16146106a7576040517f08c379a000000000000000000000000000000000000000000000000000000000815260040161069e9061149e565b60405180910390fd5b60006002600083815260200190815260200160002060030160146101000a81548160ff02191690831515021790555050565b60606000600760009054906101000a900467ffffffffffffffff1667ffffffffffffffff1667ffffffffffffffff81111561073d577f4e487b7100000000000000000000000000000000000000000000000000000000600052604160045260246000fd5b60405190808252806020026020018201604052801561077657816020015b610763610f8b565b81526020019060019003908161075b5790505b50905060005b600760009054906101000a900467ffffffffffffffff1667ffffffffffffffff168110156109b857600260008281526020019081526020016000206040518060a00160405290816000820180546107d290611736565b80601f01602080910402602001604051908101604052809291908181526020018280546107fe90611736565b801561084b5780601f106108205761010080835404028352916020019161084b565b820191906000526020600020905b81548152906001019060200180831161082e57829003601f168201915b5050505050815260200160018201805461086490611736565b80601f016020809104026020016040519081016040528092919081815260200182805461089090611736565b80156108dd5780601f106108b2576101008083540402835291602001916108dd565b820191906000526020600020905b8154815290600101906020018083116108c057829003601f168201915b50505050508152602001600282015481526020016003820160009054906101000a900473ffffffffffffffffffffffffffffffffffffffff1673ffffffffffffffffffffffffffffffffffffffff1673ffffffffffffffffffffffffffffffffffffffff1681526020016003820160149054906101000a900460ff16151515158152505082828151811061099a577f4e487b7100000000000000000000000000000000000000000000000000000000600052603260045260246000fd5b602002602001018190525080806109b090611799565b91505061077c565b508091505090565b60015481565b600015156003600083815260200190815260200160002060003373ffffffffffffffffffffffffffffffffffffffff1673ffffffffffffffffffffffffffffffffffffffff16815260200190815260200160002060009054906101000a900460ff1615151415610c3a5760016003600083815260200190815260200160002060003373ffffffffffffffffffffffffffffffffffffffff1673ffffffffffffffffffffffffffffffffffffffff16815260200190815260200160002060006101000a81548160ff021916908315150217905550346005600083815260200190815260200160002054610ab8919061160e565b60056000838152602001908152602001600020819055503360046000838152602001908152602001600020600060068481548110610b1f577f4e487b7100000000000000000000000000000000000000000000000000000000600052603260045260246000fd5b90600052602060002090600491828204019190066008029054906101000a900467ffffffffffffffff1667ffffffffffffffff16815260200190815260200160002060006101000a81548173ffffffffffffffffffffffffffffffffffffffff021916908373ffffffffffffffffffffffffffffffffffffffff16021790555060068181548110610bd9577f4e487b7100000000000000000000000000000000000000000000000000000000600052603260045260246000fd5b906000526020600020906004918282040191900660080281819054906101000a900467ffffffffffffffff1680929190610c12906117e2565b91906101000a81548167ffffffffffffffff021916908367ffffffffffffffff160217905550505b50565b6002600082815260200190815260200160002060030160009054906101000a900473ffffffffffffffffffffffffffffffffffffffff163373ffffffffffffffffffffffffffffffffffffffff1660008054906101000a900473ffffffffffffffffffffffffffffffffffffffff1673ffffffffffffffffffffffffffffffffffffffff161480610cf957508073ffffffffffffffffffffffffffffffffffffffff163373ffffffffffffffffffffffffffffffffffffffff16145b610d38576040517f08c379a0000000000000000000000000000000000000000000000000000000008152600401610d2f9061149e565b60405180910390fd5b60016002600084815260200190815260200160002060030160146101000a81548160ff0219169083151502179055505050565b8260026000600760009054906101000a900467ffffffffffffffff1667ffffffffffffffff1681526020019081526020016000206000019080519060200190610db5929190610fd2565b508160026000600760009054906101000a900467ffffffffffffffff1667ffffffffffffffff1681526020019081526020016000206001019080519060200190610e00929190610fd2565b508060026000600760009054906101000a900467ffffffffffffffff1667ffffffffffffffff168152602001908152602001600020600201819055503360026000600760009054906101000a900467ffffffffffffffff1667ffffffffffffffff16815260200190815260200160002060030160006101000a81548173ffffffffffffffffffffffffffffffffffffffff021916908373ffffffffffffffffffffffffffffffffffffffff1602179055506006600090806001815401808255809150506001900390600052602060002090600491828204019190066008029091909190916101000a81548167ffffffffffffffff021916908367ffffffffffffffff1602179055506007600081819054906101000a900467ffffffffffffffff1680929190610f2e906117e2565b91906101000a81548167ffffffffffffffff021916908367ffffffffffffffff16021790555050505050565b600033905090565b60008054906101000a900473ffffffffffffffffffffffffffffffffffffffff1681565b600090565b6040518060a00160405280606081526020016060815260200160008152602001600073ffffffffffffffffffffffffffffffffffffffff1681526020016000151581525090565b828054610fde90611736565b90600052602060002090601f0160209004810192826110005760008555611047565b82601f1061101957805160ff1916838001178555611047565b82800160010185558215611047579182015b8281111561104657825182559160200191906001019061102b565b5b5090506110549190611058565b5090565b5b80821115611071576000816000905550600101611059565b5090565b60006110886110838461153e565b611519565b9050828152602081018484840111156110a057600080fd5b6110ab8482856116f4565b509392505050565b600082601f8301126110c457600080fd5b81356110d4848260208601611075565b91505092915050565b6000813590506110ec81611952565b92915050565b60008060006060848603121561110757600080fd5b600084013567ffffffffffffffff81111561112157600080fd5b61112d868287016110b3565b935050602084013567ffffffffffffffff81111561114a57600080fd5b611156868287016110b3565b9250506040611167868287016110dd565b9150509250925092565b60006020828403121561118357600080fd5b6000611191848285016110dd565b91505092915050565b600080604083850312156111ad57600080fd5b60006111bb858286016110dd565b92505060206111cc858286016110dd565b9150509250929050565b60006111e28383611202565b60208301905092915050565b60006111fa83836113a4565b905092915050565b61120b81611698565b82525050565b61121a81611698565b82525050565b600061122b8261158f565b61123581856115ca565b93506112408361156f565b8060005b8381101561127157815161125888826111d6565b9750611263836115b0565b925050600181019050611244565b5085935050505092915050565b60006112898261159a565b61129381856115db565b9350836020820285016112a58561157f565b8060005b858110156112e157848403895281516112c285826111ee565b94506112cd836115bd565b925060208a019950506001810190506112a9565b50829750879550505050505092915050565b6112fc816116aa565b82525050565b600061130d826115a5565b61131781856115ec565b9350611327818560208601611703565b611330816118a0565b840191505092915050565b60006113486018836115fd565b9150611353826118b1565b602082019050919050565b600061136b6025836115fd565b9150611376826118da565b604082019050919050565b600061138e600e836115fd565b915061139982611929565b602082019050919050565b600060a08301600083015184820360008601526113c18282611302565b915050602083015184820360208601526113db8282611302565b91505060408301516113f06040860182611421565b5060608301516114036060860182611202565b50608083015161141660808601826112f3565b508091505092915050565b61142a816116d6565b82525050565b611439816116d6565b82525050565b60006020820190506114546000830184611211565b92915050565b600060208201905081810360008301526114748184611220565b905092915050565b60006020820190508181036000830152611496818461127e565b905092915050565b600060208201905081810360008301526114b78161133b565b9050919050565b600060208201905081810360008301526114d78161135e565b9050919050565b600060208201905081810360008301526114f781611381565b9050919050565b60006020820190506115136000830184611430565b92915050565b6000611523611534565b905061152f8282611768565b919050565b6000604051905090565b600067ffffffffffffffff82111561155957611558611871565b5b611562826118a0565b9050602081019050919050565b6000819050602082019050919050565b6000819050602082019050919050565b600081519050919050565b600081519050919050565b600081519050919050565b6000602082019050919050565b6000602082019050919050565b600082825260208201905092915050565b600082825260208201905092915050565b600082825260208201905092915050565b600082825260208201905092915050565b6000611619826116d6565b9150611624836116d6565b9250827fffffffffffffffffffffffffffffffffffffffffffffffffffffffffffffffff0382111561165957611658611813565b5b828201905092915050565b600061166f826116d6565b915061167a836116d6565b92508282101561168d5761168c611813565b5b828203905092915050565b60006116a3826116b6565b9050919050565b60008115159050919050565b600073ffffffffffffffffffffffffffffffffffffffff82169050919050565b6000819050919050565b600067ffffffffffffffff82169050919050565b82818337600083830152505050565b60005b83811015611721578082015181840152602081019050611706565b83811115611730576000848401525b50505050565b6000600282049050600182168061174e57607f821691505b6020821081141561176257611761611842565b5b50919050565b611771826118a0565b810181811067ffffffffffffffff821117156117905761178f611871565b5b80604052505050565b60006117a4826116d6565b91507fffffffffffffffffffffffffffffffffffffffffffffffffffffffffffffffff8214156117d7576117d6611813565b5b600182019050919050565b60006117ed826116e0565b915067ffffffffffffffff82141561180857611807611813565b5b600182019050919050565b7f4e487b7100000000000000000000000000000000000000000000000000000000600052601160045260246000fd5b7f4e487b7100000000000000000000000000000000000000000000000000000000600052602260045260246000fd5b7f4e487b7100000000000000000000000000000000000000000000000000000000600052604160045260246000fd5b6000601f19601f8301169050919050565b7f4f6e6c79204f776e657220686176652061636365737320210000000000000000600082015250565b7f43616e6e6f74207769746864726177206d6f7265207468616e20546f74616c2060008201527f46756e6473000000000000000000000000000000000000000000000000000000602082015250565b7f556e417574686f72697365642021000000000000000000000000000000000000600082015250565b61195b816116d6565b811461196657600080fd5b5056fea26469706673582212201e606fbb4a57febd7bf22b1165f31f56e8e8d2b546d8938d6c91e5f65a5ee92c64736f6c63430008040033",
  "immutableReferences": {},
  "source": "// SPDX-License-Identifier: MIT\r\npragma solidity >=0.4.22 <0.9.0;\r\n\r\nimport \"./AdminContract.sol\";\r\nimport \"./LogContract.sol\"; \r\nimport \"./IFunds.sol\";\r\n\r\ncontract Funds is Admin,Log,IFunds{\r\n    \r\n    struct Fundraiser{\r\n        string name;\r\n        string description;\r\n        uint amount;\r\n        address creator;\r\n        bool stopped;\r\n    }\r\n\r\n    mapping(uint => Fundraiser) Fundraisers;\r\n    mapping(uint => mapping(address => bool)) addedDonors;\r\n    mapping(uint => mapping(uint => address)) index_to_donor;\r\n    mapping(uint => uint) Fundraisers_to_Funds;\r\n    uint64 [] numberofDonors;\r\n    uint64 numberOfFundraisers;\r\n \r\n    modifier limitAmount(uint totalFunds,uint amount){\r\n        require(amount <= totalFunds , \"Cannot withdraw more than Total Funds\");\r\n        _;\r\n    }\r\n    modifier onlyFundraiserOwner(uint fundraiser){\r\n        require(Fundraisers[fundraiser].creator == msg.sender , \"UnAuthorised !\");\r\n        _;\r\n    }\r\n\r\n    function emitLog() override public view returns(address){\r\n        return msg.sender;\r\n    }\r\n\r\n    function createFundraiser(string memory name , string memory description , uint targetAmount)external{\r\n        Fundraisers[numberOfFundraisers].name = name;\r\n        Fundraisers[numberOfFundraisers].description = description; \r\n        Fundraisers[numberOfFundraisers].amount = targetAmount; \r\n        Fundraisers[numberOfFundraisers].creator = msg.sender; \r\n        numberofDonors.push(0);\r\n        numberOfFundraisers++;\r\n    }\r\n\r\n    function getFundraisers()external view returns (Fundraiser[] memory){\r\n        Fundraiser [] memory fundraisers = new Fundraiser [](numberOfFundraisers);\r\n        for (uint i = 0 ;i<numberOfFundraisers; i++){\r\n            fundraisers[i] = Fundraisers[i];\r\n        }\r\n        return fundraisers;\r\n    }\r\n\r\n    function withdraw(uint amount,uint fundraiser)external override onlyFundraiserOwner(fundraiser) limitAmount(Fundraisers_to_Funds[fundraiser],amount){\r\n        payable(msg.sender).transfer(amount);\r\n        Fundraisers_to_Funds[fundraiser] -= amount;\r\n    }\r\n\r\n    function addFunds(uint fundraiser) override external payable{\r\n        if(addedDonors[fundraiser][msg.sender] == false){\r\n            addedDonors[fundraiser][msg.sender] = true;\r\n            Fundraisers_to_Funds[fundraiser] = Fundraisers_to_Funds[fundraiser] + msg.value;\r\n            index_to_donor[fundraiser][numberofDonors[fundraiser]] = msg.sender;\r\n            numberofDonors[fundraiser]++;\r\n        }\r\n    }\r\n    // function transferOwnership(address newOwner) external onlyOwner(){\r\n    //     owner = newOwner;\r\n    // }\r\n    function getDonatorsOfFundraiser(uint fundraiser) external view returns (address[] memory){\r\n        address [] memory donators = new address [](numberofDonors[fundraiser]);\r\n        for(uint i = 0; i<numberofDonors[fundraiser]; i++){\r\n            donators[i] = index_to_donor[fundraiser][i];\r\n        }\r\n        return donators;\r\n    }\r\n\r\n    function stopFunding(uint fundraiser) external onlyCreatorOrAdmin(Fundraisers[fundraiser].creator){\r\n        Fundraisers[fundraiser].stopped = true;\r\n    }\r\n\r\n    function startFunding(uint fundraiser) external onlyAdmin(){\r\n        Fundraisers[fundraiser].stopped = false;\r\n    }\r\n}\r\n\r\n//const instance = await Funds.deployed()\r\n// instance.addFunds({value:\"10000000000000000\",from:accounts[1]})\r\n//instance.withdraw(\"10000000000000000\",{from:accounts[1]})",
  "sourcePath": "D:\\Development\\blockchain\\faucet\\contracts\\FundsContract.sol",
  "compiler": {
    "name": "solc",
    "version": "0.8.4+commit.c7e474f2.Emscripten.clang"
  },
  "schemaVersion": "3.4.5",
  "updatedAt": "2022-04-11T14:39:41.415Z",
  "networkType": "ethereum",
  "devdoc": {
    "kind": "dev",
    "methods": {},
    "version": 1
  },
  "userdoc": {
    "kind": "user",
    "methods": {},
    "version": 1
  }
}