{
  "contractName": "Funds",
  "abi": [
    {
      "stateMutability": "payable",
      "type": "receive",
      "payable": true
    },
    {
      "inputs": [],
      "name": "addFunds",
      "outputs": [],
      "stateMutability": "payable",
      "type": "function",
      "payable": true
    },
    {
      "inputs": [],
      "name": "getDonators",
      "outputs": [
        {
          "internalType": "address[]",
          "name": "",
          "type": "address[]"
        }
      ],
      "stateMutability": "view",
      "type": "function",
      "constant": true
    }
  ],
  "bytecode": "0x608060405234801561001057600080fd5b50610523806100206000396000f3fe60806040526004361061002d5760003560e01c8063a26759cb14610039578063bf1482fa1461004357610034565b3661003457005b600080fd5b61004161006e565b005b34801561004f57600080fd5b506100586101bc565b60405161006591906103a7565b60405180910390f35b600015156000803373ffffffffffffffffffffffffffffffffffffffff1673ffffffffffffffffffffffffffffffffffffffff16815260200190815260200160002060009054906101000a900460ff16151514156101ba5760016000803373ffffffffffffffffffffffffffffffffffffffff1673ffffffffffffffffffffffffffffffffffffffff16815260200190815260200160002060006101000a81548160ff0219169083151502179055503360016000600260009054906101000a900460ff1660ff16815260200190815260200160002060006101000a81548173ffffffffffffffffffffffffffffffffffffffff021916908373ffffffffffffffffffffffffffffffffffffffff1602179055506002600081819054906101000a900460ff16809291906101a090610494565b91906101000a81548160ff021916908360ff160217905550505b565b60606000600260009054906101000a900460ff1660ff1667ffffffffffffffff811115610212577f4e487b7100000000000000000000000000000000000000000000000000000000600052604160045260246000fd5b6040519080825280602002602001820160405280156102405781602001602082028036833780820191505090505b50905060005b600260009054906101000a900460ff1660ff1681101561031a576001600082815260200190815260200160002060009054906101000a900473ffffffffffffffffffffffffffffffffffffffff168282815181106102cd577f4e487b7100000000000000000000000000000000000000000000000000000000600052603260045260246000fd5b602002602001019073ffffffffffffffffffffffffffffffffffffffff16908173ffffffffffffffffffffffffffffffffffffffff168152505080806103129061044b565b915050610246565b508091505090565b600061032e838361033a565b60208301905092915050565b61034381610402565b82525050565b6000610354826103d9565b61035e81856103f1565b9350610369836103c9565b8060005b8381101561039a5781516103818882610322565b975061038c836103e4565b92505060018101905061036d565b5085935050505092915050565b600060208201905081810360008301526103c18184610349565b905092915050565b6000819050602082019050919050565b600081519050919050565b6000602082019050919050565b600082825260208201905092915050565b600061040d82610414565b9050919050565b600073ffffffffffffffffffffffffffffffffffffffff82169050919050565b6000819050919050565b600060ff82169050919050565b600061045682610434565b91507fffffffffffffffffffffffffffffffffffffffffffffffffffffffffffffffff821415610489576104886104be565b5b600182019050919050565b600061049f8261043e565b915060ff8214156104b3576104b26104be565b5b600182019050919050565b7f4e487b7100000000000000000000000000000000000000000000000000000000600052601160045260246000fdfea2646970667358221220ee9211d3237f97d394985e99fbdd79817455db0ec8e77fa02b48697e092b815b64736f6c63430008040033",
  "immutableReferences": {},
  "source": "// SPDX-License-Identifier: MIT\r\npragma solidity >=0.4.22 <0.9.0;\r\n\r\ncontract Funds{\r\n    mapping(address => bool) addedDonors;\r\n    mapping(uint => address) index_to_donor;\r\n\r\n    uint8 numberOfDonors;\r\n    receive() external payable{}\r\n    function addFunds() external payable{\r\n        if(addedDonors[msg.sender] == false){\r\n            addedDonors[msg.sender] = true;\r\n            index_to_donor[numberOfDonors] = msg.sender;\r\n            numberOfDonors++;\r\n        }\r\n    }\r\n    function getDonators() external view returns (address[] memory){\r\n        address [] memory donators = new address [](numberOfDonors);\r\n        for(uint i = 0; i<numberOfDonors; i++){\r\n            donators[i] = index_to_donor[i];\r\n        }\r\n        return donators;\r\n    }\r\n}",
  "sourcePath": "D:\\Development\\blockchain\\faucet\\contracts\\FundsContract.sol",
  "compiler": {
    "name": "solc",
    "version": "0.8.4+commit.c7e474f2.Emscripten.clang"
  },
  "schemaVersion": "3.4.5",
  "updatedAt": "2022-02-28T09:47:44.692Z",
  "networkType": "ethereum",
  "devdoc": {
    "kind": "dev",
    "methods": {},
    "version": 1
  },
  "userdoc": {
    "kind": "user",
    "methods": {},
    "version": 1
  }
}