{
  "contractName": "Parent",
  "abi": [
    {
      "inputs": [
        {
          "internalType": "string",
          "name": "creatorName",
          "type": "string"
        },
        {
          "internalType": "string",
          "name": "fundsDescription",
          "type": "string"
        },
        {
          "internalType": "uint256",
          "name": "targetAmount",
          "type": "uint256"
        }
      ],
      "name": "createFundraiser",
      "outputs": [
        {
          "internalType": "address",
          "name": "",
          "type": "address"
        }
      ],
      "stateMutability": "nonpayable",
      "type": "function"
    }
  ],
  "bytecode": "0x608060405234801561001057600080fd5b50611329806100206000396000f3fe60806040523480156200001157600080fd5b50600436106200002e5760003560e01c8063c50870b11462000033575b600080fd5b6200005160048036038101906200004b9190620001ca565b62000069565b604051620000609190620002b5565b60405180910390f35b6000808484846040516200007d9062000133565b6200008b93929190620002d2565b604051809103906000f080158015620000a8573d6000803e3d6000fd5b509050336000808373ffffffffffffffffffffffffffffffffffffffff1673ffffffffffffffffffffffffffffffffffffffff16815260200190815260200160002060006101000a81548173ffffffffffffffffffffffffffffffffffffffff021916908373ffffffffffffffffffffffffffffffffffffffff160217905550809150509392505050565b610e4880620004ac83390190565b600062000158620001528462000346565b6200031d565b9050828152602081018484840111156200017157600080fd5b6200017e848285620003d6565b509392505050565b600082601f8301126200019857600080fd5b8135620001aa84826020860162000141565b91505092915050565b600081359050620001c48162000491565b92915050565b600080600060608486031215620001e057600080fd5b600084013567ffffffffffffffff811115620001fb57600080fd5b620002098682870162000186565b935050602084013567ffffffffffffffff8111156200022757600080fd5b620002358682870162000186565b92505060406200024886828701620001b3565b9150509250925092565b6200025d8162000398565b82525050565b600062000270826200037c565b6200027c818562000387565b93506200028e818560208601620003e5565b620002998162000480565b840191505092915050565b620002af81620003cc565b82525050565b6000602082019050620002cc600083018462000252565b92915050565b60006060820190508181036000830152620002ee818662000263565b9050818103602083015262000304818562000263565b9050620003156040830184620002a4565b949350505050565b6000620003296200033c565b90506200033782826200041b565b919050565b6000604051905090565b600067ffffffffffffffff82111562000364576200036362000451565b5b6200036f8262000480565b9050602081019050919050565b600081519050919050565b600082825260208201905092915050565b6000620003a582620003ac565b9050919050565b600073ffffffffffffffffffffffffffffffffffffffff82169050919050565b6000819050919050565b82818337600083830152505050565b60005b8381101562000405578082015181840152602081019050620003e8565b8381111562000415576000848401525b50505050565b620004268262000480565b810181811067ffffffffffffffff8211171562000448576200044762000451565b5b80604052505050565b7f4e487b7100000000000000000000000000000000000000000000000000000000600052604160045260246000fd5b6000601f19601f8301169050919050565b6200049c81620003cc565b8114620004a857600080fd5b5056fe60806040523480156200001157600080fd5b5060405162000e4838038062000e488339818101604052810190620000379190620001fb565b336000806101000a81548173ffffffffffffffffffffffffffffffffffffffff021916908373ffffffffffffffffffffffffffffffffffffffff1602179055506103e8600181905550826002908051906020019062000098929190620000c2565b508160039080519060200190620000b1929190620000c2565b508060048190555050505062000417565b828054620000d09062000322565b90600052602060002090601f016020900481019282620000f4576000855562000140565b82601f106200010f57805160ff191683800117855562000140565b8280016001018555821562000140579182015b828111156200013f57825182559160200191906001019062000122565b5b5090506200014f919062000153565b5090565b5b808211156200016e57600081600090555060010162000154565b5090565b6000620001896200018384620002ac565b62000283565b905082815260208101848484011115620001a257600080fd5b620001af848285620002ec565b509392505050565b600082601f830112620001c957600080fd5b8151620001db84826020860162000172565b91505092915050565b600081519050620001f581620003fd565b92915050565b6000806000606084860312156200021157600080fd5b600084015167ffffffffffffffff8111156200022c57600080fd5b6200023a86828701620001b7565b935050602084015167ffffffffffffffff8111156200025857600080fd5b6200026686828701620001b7565b92505060406200027986828701620001e4565b9150509250925092565b60006200028f620002a2565b90506200029d828262000358565b919050565b6000604051905090565b600067ffffffffffffffff821115620002ca57620002c9620003bd565b5b620002d582620003ec565b9050602081019050919050565b6000819050919050565b60005b838110156200030c578082015181840152602081019050620002ef565b838111156200031c576000848401525b50505050565b600060028204905060018216806200033b57607f821691505b602082108114156200035257620003516200038e565b5b50919050565b6200036382620003ec565b810181811067ffffffffffffffff82111715620003855762000384620003bd565b5b80604052505050565b7f4e487b7100000000000000000000000000000000000000000000000000000000600052602260045260246000fd5b7f4e487b7100000000000000000000000000000000000000000000000000000000600052604160045260246000fd5b6000601f19601f8301169050919050565b6200040881620002e2565b81146200041457600080fd5b50565b610a2180620004276000396000f3fe60806040526004361061007f5760003560e01c8063bf1482fa1161004e578063bf1482fa14610114578063f2fde38b1461013f578063f42c13bf14610168578063f8a8fd6d1461019357610086565b80632e1a7d4d1461008b5780638da5cb5b146100b4578063a26759cb146100df578063ae28f1ed146100e957610086565b3661008657005b600080fd5b34801561009757600080fd5b506100b260048036038101906100ad9190610666565b6101be565b005b3480156100c057600080fd5b506100c9610255565b6040516100d69190610778565b60405180910390f35b6100e7610279565b005b3480156100f557600080fd5b506100fe6103c9565b60405161010b91906107f5565b60405180910390f35b34801561012057600080fd5b506101296103cf565b6040516101369190610793565b60405180910390f35b34801561014b57600080fd5b506101666004803603810190610161919061063d565b610535565b005b34801561017457600080fd5b5061017d610606565b60405161018a9190610778565b60405180910390f35b34801561019f57600080fd5b506101a861060e565b6040516101b591906107f5565b60405180910390f35b80670de0b6b3a764000081111561020a576040517f08c379a0000000000000000000000000000000000000000000000000000000008152600401610201906107b5565b60405180910390fd5b3373ffffffffffffffffffffffffffffffffffffffff166108fc839081150290604051600060405180830381858888f19350505050158015610250573d6000803e3d6000fd5b505050565b60008054906101000a900473ffffffffffffffffffffffffffffffffffffffff1681565b60001515600560003373ffffffffffffffffffffffffffffffffffffffff1673ffffffffffffffffffffffffffffffffffffffff16815260200190815260200160002060009054906101000a900460ff16151514156103c7576001600560003373ffffffffffffffffffffffffffffffffffffffff1673ffffffffffffffffffffffffffffffffffffffff16815260200190815260200160002060006101000a81548160ff0219169083151502179055503360066000600760009054906101000a900460ff1660ff16815260200190815260200160002060006101000a81548173ffffffffffffffffffffffffffffffffffffffff021916908373ffffffffffffffffffffffffffffffffffffffff1602179055506007600081819054906101000a900460ff16809291906103ad906108ec565b91906101000a81548160ff021916908360ff160217905550505b565b60015481565b60606000600760009054906101000a900460ff1660ff1667ffffffffffffffff811115610425577f4e487b7100000000000000000000000000000000000000000000000000000000600052604160045260246000fd5b6040519080825280602002602001820160405280156104535781602001602082028036833780820191505090505b50905060005b600760009054906101000a900460ff1660ff1681101561052d576006600082815260200190815260200160002060009054906101000a900473ffffffffffffffffffffffffffffffffffffffff168282815181106104e0577f4e487b7100000000000000000000000000000000000000000000000000000000600052603260045260246000fd5b602002602001019073ffffffffffffffffffffffffffffffffffffffff16908173ffffffffffffffffffffffffffffffffffffffff16815250508080610525906108a3565b915050610459565b508091505090565b3373ffffffffffffffffffffffffffffffffffffffff1660008054906101000a900473ffffffffffffffffffffffffffffffffffffffff1673ffffffffffffffffffffffffffffffffffffffff16146105c3576040517f08c379a00000000000000000000000000000000000000000000000000000000081526004016105ba906107d5565b60405180910390fd5b806000806101000a81548173ffffffffffffffffffffffffffffffffffffffff021916908373ffffffffffffffffffffffffffffffffffffffff16021790555050565b600033905090565b600090565b600081359050610622816109bd565b92915050565b600081359050610637816109d4565b92915050565b60006020828403121561064f57600080fd5b600061065d84828501610613565b91505092915050565b60006020828403121561067857600080fd5b600061068684828501610628565b91505092915050565b600061069b83836106a7565b60208301905092915050565b6106b08161085a565b82525050565b6106bf8161085a565b82525050565b60006106d082610820565b6106da8185610838565b93506106e583610810565b8060005b838110156107165781516106fd888261068f565b97506107088361082b565b9250506001810190506106e9565b5085935050505092915050565b6000610730602183610849565b915061073b82610945565b604082019050919050565b6000610753601883610849565b915061075e82610994565b602082019050919050565b6107728161088c565b82525050565b600060208201905061078d60008301846106b6565b92915050565b600060208201905081810360008301526107ad81846106c5565b905092915050565b600060208201905081810360008301526107ce81610723565b9050919050565b600060208201905081810360008301526107ee81610746565b9050919050565b600060208201905061080a6000830184610769565b92915050565b6000819050602082019050919050565b600081519050919050565b6000602082019050919050565b600082825260208201905092915050565b600082825260208201905092915050565b60006108658261086c565b9050919050565b600073ffffffffffffffffffffffffffffffffffffffff82169050919050565b6000819050919050565b600060ff82169050919050565b60006108ae8261088c565b91507fffffffffffffffffffffffffffffffffffffffffffffffffffffffffffffffff8214156108e1576108e0610916565b5b600182019050919050565b60006108f782610896565b915060ff82141561090b5761090a610916565b5b600182019050919050565b7f4e487b7100000000000000000000000000000000000000000000000000000000600052601160045260246000fd5b7f43616e6e6f74207769746864726177206d6f7265207468616e2031204574686560008201527f7200000000000000000000000000000000000000000000000000000000000000602082015250565b7f4f6e6c79204f776e657220686176652061636365737320210000000000000000600082015250565b6109c68161085a565b81146109d157600080fd5b50565b6109dd8161088c565b81146109e857600080fd5b5056fea26469706673582212202013ef7ec318233e7355fcb7c90aeb96ad26720f802ff96186f9fb0c3d12e10a64736f6c63430008040033a2646970667358221220f5654640f32dfd6d9042896b3806339705e262b6cd19bae9681217c6adb9cc4364736f6c63430008040033",
  "immutableReferences": {},
  "source": "// SPDX-License-Identifier: MIT\r\npragma solidity >=0.4.22 <0.9.0;\r\n\r\nimport \"./FundsContract.sol\";\r\n\r\ncontract Parent {\r\n    mapping(address => address) admin_to_index;\r\n\r\n    function createFundraiser(string memory creatorName, string memory fundsDescription, uint targetAmount)external returns(address){\r\n        // deploy another smartcontract for this fundraiser\r\n        address fundraiser = address(new Funds(creatorName,fundsDescription,targetAmount));\r\n        admin_to_index[fundraiser] = msg.sender; \r\n        return fundraiser;\r\n    }\r\n\r\n} ",
  "sourcePath": "D:\\Development\\blockchain\\faucet\\contracts\\ParentContract.sol",
  "compiler": {
    "name": "solc",
    "version": "0.8.4+commit.c7e474f2.Emscripten.clang"
  },
  "schemaVersion": "3.4.5",
  "updatedAt": "2022-03-24T16:46:42.664Z",
  "networkType": "ethereum",
  "devdoc": {
    "kind": "dev",
    "methods": {},
    "version": 1
  },
  "userdoc": {
    "kind": "user",
    "methods": {},
    "version": 1
  }
}